:020000000C945E
:1000020047000C9400000C9400000C9400000C9427
:1000120000000C9400000C9400000C9400000C945E
:1000220000000C9400000C9400000C9400000C944E
:1000320000000C9400000C9400000C9400000C943E
:1000420000000C9400000C9400000C9400000C942E
:1000520000001027E80364000A00010000100001FC
:100062001000010014002564002F0078002D002BE1
:1000720000256420003D20256420000080C002008D
:1000820004006600020083027E000000F894EE275E
:10009200ECBBF1E0FBBFEBBFE5BF8DE0A2E0BB270D
:1000A200ED938A95E9F780E098E0A0E6ED93019759
:1000B200E9F7E0E8F0E085919591009761F0A5916C
:1000C200B59105901590BF01F00105900D92019731
:1000D200E1F7FB01F0CFEFE5EDBFE8E0EEBFC0E6F0
:1000E200D2E00C94DC00EEEFE2BB879904C0EAE0B8
:1000F200F0E02F015EC0869904C0E9E0F0E02F0134
:1001020058C0859904C0E8E0F0E02F0152C08499FC
:1001120004C0E7E0F0E02F014CC0EDEFE2BB8799AD
:1001220004C0EBE0F0E02F0144C0869904C0E6E091
:10013200F0E02F013EC0859904C0E5E0F0E02F0118
:1001420038C0849904C0E4E0F0E02F0132C0EBEF44
:10015200E2BB879904C0ECE0F0E02F012AC0869947
:1001620004C0E3E0F0E02F0124C0859904C0E2E07E
:10017200F0E02F011EC0849904C0E1E0F0E02F01FD
:1001820018C0E7EFE2BB879904C0EDE0F0E02F0171
:1001920010C0869904C0EEE0F0E02F010AC08599F4
:1001A20003C04424552405C0849903C0EFE0F0E065
:1001B2002F01E42D0895E0EFE2BBEFE0E1BBA0E107
:1001C2000E944504062C0728E1F40E949204EAE00A
:1001D200F0E04E165F069CF45201E0E0EA93A0E0E4
:1001E2000E94D3030E949704E8E6F0E0FA93EA93B0
:1001F200F5010E949C04E1E0F0E03F0102C06624A8
:100202007724E4E0F0E0E615F70579F40E94920421
:10021200EFE0F0E0E415F50529F40E94E703662417
:10022200772403C0E4E0F0E03F01E1E0F0E0E6150E
:10023200F705D1F50E949204EAE0F0E0E415F50535
:1002420049F4E4E0F0E04F010E949704EBE6F0E0AD
:100252000E94A804EBE0F0E0E415F50549F4E3E0C0
:10026200F0E04F010E949704EDE6F0E00E94A8043E
:10027200ECE0F0E0E415F50549F4E2E0F0E04F01CE
:100282000E949704EFE6F0E00E94A804EDE0F0E09F
:10029200E415F50549F4E1E0F0E04F010E9497040E
:1002A200E1E7F0E00E94A804E2E0F0E0E615F705DD
:1002B200B9F40E949204EAE0F0E04E165F066CF494
:1002C20062010E949704E3E7F0E0FA93EA93F601F1
:1002D2000E949C04E3E0F0E002C0E2E0F0E03F01B3
:1002E200E3E0F0E0E615F70509F05EC0E1E0F0E0DA
:1002F200E815F90591F4F601EA0DFB1D0E94B6041A
:100302000E94BB0439F40E9497040E94C004E4E0F6
:10031200F0E002C0E3E0F0E03F01E2E0F0E0E815E7
:10032200F90591F4F501EC19FD090E94B6040E9449
:10033200BB0439F40E9497040E94C004E4E0F0E098
:1003420002C0E3E0F0E03F01E3E0F0E0E815F90588
:1003520099F4F601D5010E9413050E94B6040E9489
:10036200BB0439F40E9497040E94C004E4E0F0E068
:1003720002C0E3E0F0E03F01E4E0F0E0E815F90557
:1003820099F4F601D5010E942B050E94B6040E9441
:10039200BB0439F40E9497040E94C004E4E0F0E038
:1003A20002C0E3E0F0E03F01E4E0F0E0E615F7052B
:1003B20079F40E949204EFE0F0E0E415F50529F4E7
:1003C2000E94E7036624772403C0E4E0F0E03F01E3
:1003D200F9CEFFCFBA93AA931A930A93AA81BB814B
:1003E20012960E943E05309759F1AA81BB8114965C
:1003F2000E943E058F01309761F00230E0E01E0757
:1004020098F0F80131978F01AA81BB811496ED9380
:10041200FC93AA81BB811296ED91FD913196FE93D8
:10042200EE933197AC81A083AA81BB810E943E05E5
:10043200FF232AF0ED91FD913196FE93EE9306C0D3
:10044200AA81BB81EFEFFFEFED93FC931981088145
:1004520025960895BA93AA9326970E944B0510E019
:10046200AC85BD85E0E0F0E0ED93FC93EA89FB8981
:100472003196EA8BFB8B3197E4912E2FE03009F411
:1004820015C1E12FE03039F4253211F411E002C038
:100492000E94C9040AC1E130A9F4253219F40E946C
:1004A200C90402C112E040E000E02D3211F401E083
:1004B200FCC02B3211F44BE2F8C0203211F440E2BE
:1004C200F4C002C0E23039F450E013E0203311F4FA
:1004D2000068EBC003C0E33009F0E7C0203310F03E
:1004E2002A3308F007C0AAE05A9F502DE22FE053AA
:1004F2005E0FDBC0E22FE33649F40E94D004E889A4
:10050200F989A481AA930E94D604CEC0E33741F4AC
:100512000E94D0040E94DC040E9479041E2F0AC0AB
:10052200E03761F40E94D0040E94DC040E9485043A
:100532001E2F086002600F7730E034C0E43611F0FD
:10054200E93611F4046002C0E53731F4E4E5F0E085
:10055200EE83FF8315E00CC0E83511F4086003C098
:10056200E83709F0A1C0EEE5F0E0EE83FF8314E086
:1005720002FF14C00E94D0040E94E604AB85AA23A5
:100582003AF4EA85FB850E940205EA87FB874DE281
:10059200403011F01F5F01C00B7F04C00E94D004E5
:1005A2000E94E60400FD11C0151778F407FF08C089
:1005B20002FF04C00B7F242F115001C020E301C0B1
:1005C20020E20E94C9045150EFCF312F01FF17C022
:1005D2003030A1F003FF06C0EE81FF812591EE834A
:1005E200FF8305C0AE81BF812D91AE83BF830E9480
:1005F200C904503009F051503150EACF4BC020E3CA
:10060200EE81FF810E944205E887F987EE81FF8132
:100612003296EE83FF83E885F985AA85BB85AE17FE
:10062200BF0750F02F5FA885B985EA85FB85EA1BD5
:10063200FB0BEA87FB87EFCF2A3328F003FF02C0C8
:10064200295F01C0295D04FD1AC0213320F4A88569
:10065200B985119709F409C0531710F000FF01C0C2
:1006620013C020E207FF0BC020E3006102FF07C0B6
:100672000B7F4A930E94D604503009F051500E94D9
:10068200C904503009F051503150A885B9851297EC
:1006920008F0B5CF00FF08C0503031F05150E0E211
:1006A200EA930E94D604F8CF10E0E0CEAC85BD8577
:1006B2000E943E050E94520564960895FF92F82E0C
:1006C20026970E944D050E94EE04309719F4EFEF31
:1006D200FFEF23C0DE0116960E94FE048D010E94E8
:1006E200EE04EE83FF83E0E0E887E987DE011A96F5
:1006F2000E94FE040E943E05FA93EA931A930A931B
:10070200EBEEF1E0FA93EA93DE011A96A3DE9F0183
:10071200AE81BF81E0E0EC93F9010E9454052A9674
:10072200FF900895FFE0FA95F1F70895A4B3AF7032
:10073200A4BBA99AA898F6DFAA9AF4DFA3B3AA9851
:10074200F1DFAA9AEFDFAA98A7FDF5CF0895A07F5F
:10075200AB2BA5BBAA9A0E949303AA980E9493036B
:100762000895AA93A998A4B3A76FA4BBB5B3BF7009
:10077200A881EDDFA881A295EADFA99A0C947704FB
:10078200AA9A0E949303E3B3AA980E949303E07F7C
:1007920008950E949303F4DFAE2FF2DFA998E29549
:1007A200EA2B0895AA930E949703E881F0E0ED579F
:1007B200FD4FE081A981AE0F0E94B203E981E0936F
:1007C2008702E881E0938802229608950E949703A7
:1007D200A2E00E94B2030E949703ACE00E94B2031F
:1007E2000E949703A1E00E94B203E0E0E093880236
:1007F200E09387020895AA93EF93FF93A8816894E8
:10080200AA3039F0E894E0918902A0918702AE17EC
:1008120058F0E0918802EF5FE0938802E0E0EA930B
:10082200A0918802BFDF56F0E0918702EF5FE0936C
:1008320087027CDFA89AA8810E94B203FF91EF9100
:100842000C947704BA93AA931A93A981BA81ED9171
:10085200A983BA831E2FE03019F0A12FCCDFF5CF88
:10086200188123960895AA27BB271197F1F70895B7
:10087200AA93A998A4B3A76FA4BBB5B3BF70A8816C
:100882000E94A803A99A32C0AA93AA98A898E881BC
:10089200E0938902E058E0938502E881E054E09316
:1008A20086020E94F5040E94F5040E94F504DBDF33
:1008B200A0E2DEDFD8DFA8E20E94FA04A4E00E94F0
:1008C200FA04A5E80E94FA04A4B3AF70A4BBA99AE3
:1008D2000E94CA03E53011F0E0E008C00E949703CD
:1008E200A6E00E94B2030E94E703E1E02196089588
:1008F200BA93AA93A991B991EE27FF276D91662326
:1009020011F03196FBCF0895BA93AA93AA27BB2779
:10091200E991F9910590002011F01196FBCFFD01AC
:1009220008950E9474004E2E55240895E2E6F2E0E6
:10093200FA93EA9308950E9406050E94460584E010
:100942000E945F032896A2E6B2E00C942304FA9375
:10095200EA9380E00E945F032496A2E6B2E00E943E
:100962002304E2E0F0E03F010895E0936002F09397
:100972006102D7CFEEE0F0E0E415F5050895E7E770
:10098200F0E0FA93EA93E0916002F0916102D3CF32
:100992002A93AD85BE85EF85F88909950895E88982
:1009A200F9893497E88BF98B0895AD85BE85EF857B
:1009B200F88909950895A889B98914960E943E0577
:1009C200EE83FF83AE81BF810895A889B989149609
:1009D2000E943E05EA87FB870895DE011C960E946D
:1009E200FE040E943E0508950E943404A0E30C9484
:1009F20039040E94B2030C9434040024AF0DB01DDC
:100A02000895F195E195F04008956F2F660F660BFA
:100A1200762F0895FA9FF02DEB9FF00DEA9FE02DBF
:100A2200F10D08951CD0F6DF0EF4EBDF08950024DB
:100A3200112490E1AA0FBB1F001C111C0E1A1F0AE1
:100A420018F40E0E1F1E01C0A1609A9599F7FD01C0
:100A5200D001089504D0EBDF0EF4D3DF0895E894BB
:100A6200F7FF02C0CEDF6894B7FF06C0A095B0952D
:100A7200119600F8039400FA0895ED91FC911197F4
:100A820008950590F491E02D08957A936A93FA936C
:100A9200EA9308955A934A933A932A931A930A939C
:100AA20008955D814C813B812A81198108810895D5
:00000001FF
