:080000000C942A000C9400008E
:100008000C9400000C9400000C9400000C94000068
:100018000C9400000C9400000C9400000C94000058
:100028000C9400000C9400000C9400000C94000048
:100038000C9400000C9400000C9400000C94000038
:100048000C9400000C9400000C940000F894EE2727
:10005800ECBBF1E0FBBFEBBFE5BF8DE0A2E0BB2747
:10006800ED938A95E9F780E098E0A0E6ED93019793
:10007800E9F7EFE5EDBFE8E0EEBFC0E6D2E00C94AB
:100088004500EFEFE4BBEFE314D0E6E012D0EBE578
:1000980010D0EFE40ED0E6E60CD0EDE60AD0EDE79E
:1000A80008D0E7E006D0EFE704D0EFE602D0EBCFC8
:1000B800FFCFE5BBA4EFB1E00C946200109639F0D5
:1000C800A8958EEE92E00197F1F71197C9F7089578
:00000001FF
