:020000000C945E
:1000020040000C9400000C9400000C9400000C942E
:1000120000000C9400000C9400000C9400000C945E
:1000220000000C9400000C9400000C9400000C944E
:1000320000000C9400000C9400000C9400000C943E
:1000420000000C9400000C9400000C9400000C942E
:1000520000001027E80364000A00010000100001FC
:10006200100001003F065B4F666D7D077F6F80C009
:100072000A006002660002006A0270000000F89442
:10008200EE27ECBBF1E0FBBFEBBFE5BF8DE0A2E0EA
:10009200BB27ED938A95E9F780E098E0A0E6ED931F
:1000A2000197E9F7E2E7F0E085919591009761F019
:1000B200A591B59105901590BF01F00105900D92A3
:1000C2000197E1F7FB01F0CFEFE5EDBFE8E0EEBF0E
:1000D200C0E6D2E00C946D0000E010E0EFEFE1BB6F
:1000E200E0E0E2BBD098D89AA89A0E940201A0E16F
:1000F2000E94D400C89929C00930E0E01E0714F418
:100102000F5F1F4F0E94020120E030E02431E0E047
:100112003E0714F4C89B01C007C0A2E3B0E00E94EE
:1001220017012F5F3F4FF2CFC8990FC00F5F1F4FCC
:100132000A30E0E01E0714F000E010E00E94020125
:10014200A4EFB1E00E941701EFCFD4CFFFCFAA9363
:10015200E5B3EF70AE2FE881E07FEA2BE5BB8DE0DF
:100162008A95F1F7AA9A8DE08A95F1F7AA988DE01F
:100172008A95F1F744C0AA93A881E9DFE881E29564
:10018200E883A881E4DF85E88A95F1F738C0A2E028
:100192000E940901ACE0EFDFA1E00E940901E0E06A
:1001A2004E2E5E2E0895AA93E4B3E06FE4BBA29AAA
:1001B200A09AA19AAA98A898A9987880E881E0586C
:1001C200E0936C02E881E054E0936D02A4E1B0E0B8
:1001D2000E9417010E940F010E940F010E940F014D
:1001E200A0E2B5DF88EC90E00197F1F7A8E2C3DF67
:1001F200A4E0C1DFA5E8BFDFA6E0BDDFC8DF21962E
:100202000895A0E6B2E0A00FB11FEC91E2BB089501
:100212000E94BC00A3E0B0E00C941701A0E30E948E
:10022200A80088EC90E00197F1F70895109639F054
:10023200A89580ED97E00197F1F71197C9F7089516
:00000001FF
