:040000000C942A0032
:100004000C9400000C9400000C9400000C9400006C
:100014000C9400000C9400000C9400000C9400005C
:100024000C9400000C9400000C9400000C9400004C
:100034000C9400000C9400000C9400000C9400003C
:100044000C9400000C9400000C9400000C9400002C
:10005400F894EE27ECBBF1E0FBBFEBBFE5BF8DE00E
:10006400A2E0BB27ED938A95E9F780E098E0A0E64B
:10007400ED930197E9F7EFE5EDBFE8E0EEBFC0E6E9
:10008400D2E00C944500EFEFE4BBE0E822D0442436
:100094005524E7E0F0E04E165F064CF4E5B3F0E0DB
:1000A400F595E79516D0F20131962F01F2CFE1E0F4
:1000B40010D044245524E7E0F0E04E165F063CF4EB
:1000C400E5B3EE0F06D0F20131962F01F4CFDDCF68
:1000D400FFCFE5BBA8ECB0E00C947000109639F0AB
:1000E40088EB9BE00197F1F7A8951197C9F708955C
:00000001FF
